{
  "contractName": "Donation",
  "abi": [
    {
      "inputs": [],
      "stateMutability": "nonpayable",
      "type": "constructor"
    },
    {
      "inputs": [
        {
          "internalType": "uint256",
          "name": "",
          "type": "uint256"
        }
      ],
      "name": "donators",
      "outputs": [
        {
          "internalType": "address",
          "name": "",
          "type": "address"
        }
      ],
      "stateMutability": "view",
      "type": "function"
    },
    {
      "inputs": [],
      "name": "owner",
      "outputs": [
        {
          "internalType": "address payable",
          "name": "",
          "type": "address"
        }
      ],
      "stateMutability": "view",
      "type": "function"
    },
    {
      "inputs": [],
      "name": "gatDonation",
      "outputs": [],
      "stateMutability": "payable",
      "type": "function"
    },
    {
      "inputs": [],
      "name": "transferToOwner",
      "outputs": [],
      "stateMutability": "nonpayable",
      "type": "function"
    },
    {
      "inputs": [],
      "name": "getDonators",
      "outputs": [
        {
          "internalType": "address[]",
          "name": "",
          "type": "address[]"
        }
      ],
      "stateMutability": "view",
      "type": "function"
    },
    {
      "inputs": [],
      "name": "balanceCont",
      "outputs": [
        {
          "internalType": "uint256",
          "name": "",
          "type": "uint256"
        }
      ],
      "stateMutability": "nonpayable",
      "type": "function"
    }
  ],
  "bytecode": "0x608060405234801561001057600080fd5b50336000806101000a81548173ffffffffffffffffffffffffffffffffffffffff021916908373ffffffffffffffffffffffffffffffffffffffff1602179055506105ab806100606000396000f3fe6080604052600436106100555760003560e01c80632015a3fc1461005a5780632d90ae94146100855780638da5cb5b1461009c5780639b9e7e12146100c7578063ac62f566146100d1578063bf1482fa1461010e575b600080fd5b34801561006657600080fd5b5061006f610139565b60405161007c9190610384565b60405180910390f35b34801561009157600080fd5b5061009a610141565b005b3480156100a857600080fd5b506100b1610202565b6040516100be91906103e0565b60405180910390f35b6100cf610226565b005b3480156100dd57600080fd5b506100f860048036038101906100f3919061042c565b61029e565b604051610105919061047a565b60405180910390f35b34801561011a57600080fd5b506101236102dd565b6040516101309190610553565b60405180910390f35b600047905090565b60008054906101000a900473ffffffffffffffffffffffffffffffffffffffff1673ffffffffffffffffffffffffffffffffffffffff163373ffffffffffffffffffffffffffffffffffffffff161461019957600080fd5b60008054906101000a900473ffffffffffffffffffffffffffffffffffffffff1673ffffffffffffffffffffffffffffffffffffffff166108fc479081150290604051600060405180830381858888f193505050501580156101ff573d6000803e3d6000fd5b50565b60008054906101000a900473ffffffffffffffffffffffffffffffffffffffff1681565b655af3107a400034101561023957600080fd5b6001339080600181540180825580915050600190039060005260206000200160009091909190916101000a81548173ffffffffffffffffffffffffffffffffffffffff021916908373ffffffffffffffffffffffffffffffffffffffff160217905550565b600181815481106102ae57600080fd5b906000526020600020016000915054906101000a900473ffffffffffffffffffffffffffffffffffffffff1681565b6060600180548060200260200160405190810160405280929190818152602001828054801561036157602002820191906000526020600020905b8160009054906101000a900473ffffffffffffffffffffffffffffffffffffffff1673ffffffffffffffffffffffffffffffffffffffff1681526020019060010190808311610317575b5050505050905090565b6000819050919050565b61037e8161036b565b82525050565b60006020820190506103996000830184610375565b92915050565b600073ffffffffffffffffffffffffffffffffffffffff82169050919050565b60006103ca8261039f565b9050919050565b6103da816103bf565b82525050565b60006020820190506103f560008301846103d1565b92915050565b600080fd5b6104098161036b565b811461041457600080fd5b50565b60008135905061042681610400565b92915050565b600060208284031215610442576104416103fb565b5b600061045084828501610417565b91505092915050565b60006104648261039f565b9050919050565b61047481610459565b82525050565b600060208201905061048f600083018461046b565b92915050565b600081519050919050565b600082825260208201905092915050565b6000819050602082019050919050565b6104ca81610459565b82525050565b60006104dc83836104c1565b60208301905092915050565b6000602082019050919050565b600061050082610495565b61050a81856104a0565b9350610515836104b1565b8060005b8381101561054657815161052d88826104d0565b9750610538836104e8565b925050600181019050610519565b5085935050505092915050565b6000602082019050818103600083015261056d81846104f5565b90509291505056fea2646970667358221220c7958b92befc542fcb45091fa2762b636d364c98fa2281f9bee52b580333054e64736f6c634300080a0033",
  "immutableReferences": {},
  "source": "// SPDX-License-Identifier: MIT\npragma solidity >=0.4.22 <0.9.0;\n\ncontract Donation {\n  address payable public owner;\n  address[] public donators;\n\n  constructor() public {\n    owner = payable(msg.sender);\n  }\n  //  \n  function gatDonation() public payable{\n    require(msg.value >= .0001 ether);\n    donators.push(msg.sender);\n  }\n\n  //   \n  function transferToOwner() external{\n    require(msg.sender == owner);\n    owner.transfer(address(this).balance);\n  }\n\n  function getDonators() public view returns(address[] memory){\n    return donators;\n  }\n  function balanceCont() public returns(uint256){\n    return address(this).balance;\n  }\n}\n",
  "sourcePath": "D:\\DonationsContract\\contracts\\Donation.sol",
  "compiler": {
    "name": "solc",
    "version": "0.8.10+commit.fc410830.Emscripten.clang"
  },
  "schemaVersion": "3.4.3",
  "updatedAt": "2021-11-24T13:59:55.450Z",
  "devdoc": {
    "kind": "dev",
    "methods": {},
    "version": 1
  },
  "userdoc": {
    "kind": "user",
    "methods": {},
    "version": 1
  }
}